{
  "abi": [
    {
      "inputs": [
        {
          "internalType": "string",
          "name": "_transaction",
          "type": "string"
        },
        {
          "internalType": "string",
          "name": "_type",
          "type": "string"
        },
        {
          "internalType": "string",
          "name": "_pincode",
          "type": "string"
        },
        {
          "internalType": "string",
          "name": "_weight",
          "type": "string"
        },
        {
          "internalType": "string",
          "name": "_category",
          "type": "string"
        }
      ],
      "name": "_allotCode",
      "outputs": [],
      "stateMutability": "nonpayable",
      "type": "function"
    }
  ],
  "bytecode": "608060405234801561001057600080fd5b50610490806100206000396000f3fe608060405234801561001057600080fd5b506004361061002b5760003560e01c80639fdb742c14610030575b600080fd5b61004361003e366004610298565b610045565b005b3361004f816100ff565b61005857600080fd5b60016040518060400160405280336001600160a01b03168152602001888888888860405160200161008d9594939291906103a5565b60408051808303601f1901815291905290528154600180820184556000938452602093849020835160029093020180546001600160a01b0319166001600160a01b03909316929092178255828401518051939492936100f49392850192919091019061015c565b505050505050505050565b600080805b6000548110156101555760008181548110610121576101216103e0565b6000918252602090912001546001600160a01b038581169116141561014557600191505b61014e816103f6565b9050610104565b5092915050565b8280546101689061041f565b90600052602060002090601f01602090048101928261018a57600085556101d0565b82601f106101a357805160ff19168380011785556101d0565b828001600101855582156101d0579182015b828111156101d05782518255916020019190600101906101b5565b506101dc9291506101e0565b5090565b5b808211156101dc57600081556001016101e1565b634e487b7160e01b600052604160045260246000fd5b600082601f83011261021c57600080fd5b813567ffffffffffffffff80821115610237576102376101f5565b604051601f8301601f19908116603f0116810190828211818310171561025f5761025f6101f5565b8160405283815286602085880101111561027857600080fd5b836020870160208301376000602085830101528094505050505092915050565b600080600080600060a086880312156102b057600080fd5b853567ffffffffffffffff808211156102c857600080fd5b6102d489838a0161020b565b965060208801359150808211156102ea57600080fd5b6102f689838a0161020b565b9550604088013591508082111561030c57600080fd5b61031889838a0161020b565b9450606088013591508082111561032e57600080fd5b61033a89838a0161020b565b9350608088013591508082111561035057600080fd5b5061035d8882890161020b565b9150509295509295909350565b6000815160005b8181101561038b5760208185018101518683015201610371565b8181111561039a576000828601525b509290920192915050565b60006103d56103cf6103c96103c36103bd868c61036a565b8a61036a565b8861036a565b8661036a565b8461036a565b979650505050505050565b634e487b7160e01b600052603260045260246000fd5b600060001982141561041857634e487b7160e01b600052601160045260246000fd5b5060010190565b600181811c9082168061043357607f821691505b6020821081141561045457634e487b7160e01b600052602260045260246000fd5b5091905056fea2646970667358221220f682f3ecc201c56a5743e57e5b4642dd837e63b691b0d54a7ad533bc28223ad764736f6c634300080b0033",
  "bytecodeSha1": "b3a9841986fa198760bb14bb1f62ebec91bdb2c1",
  "compiler": {
    "evm_version": "istanbul",
    "optimizer": {
      "enabled": true,
      "runs": 200
    },
    "version": "0.8.11+commit.d7f03943"
  },
  "contractName": "TransferNetwork",
  "language": "Solidity",
  "natspec": {
    "kind": "dev",
    "methods": {},
    "version": 1
  },
  "opcodes": "PUSH1 0x80 PUSH1 0x40 MSTORE CALLVALUE DUP1 ISZERO PUSH2 0x10 JUMPI PUSH1 0x0 DUP1 REVERT JUMPDEST POP PUSH1 0x4 CALLDATASIZE LT PUSH2 0x2B JUMPI PUSH1 0x0 CALLDATALOAD PUSH1 0xE0 SHR DUP1 PUSH4 0x9FDB742C EQ PUSH2 0x30 JUMPI JUMPDEST PUSH1 0x0 DUP1 REVERT JUMPDEST PUSH2 0x43 PUSH2 0x3E CALLDATASIZE PUSH1 0x4 PUSH2 0x298 JUMP JUMPDEST PUSH2 0x45 JUMP JUMPDEST STOP JUMPDEST CALLER PUSH2 0x4F DUP2 PUSH2 0xFF JUMP JUMPDEST PUSH2 0x58 JUMPI PUSH1 0x0 DUP1 REVERT JUMPDEST PUSH1 0x1 PUSH1 0x40 MLOAD DUP1 PUSH1 0x40 ADD PUSH1 0x40 MSTORE DUP1 CALLER PUSH1 0x1 PUSH1 0x1 PUSH1 0xA0 SHL SUB AND DUP2 MSTORE PUSH1 0x20 ADD DUP9 DUP9 DUP9 DUP9 DUP9 PUSH1 0x40 MLOAD PUSH1 0x20 ADD PUSH2 0x8D SWAP6 SWAP5 SWAP4 SWAP3 SWAP2 SWAP1 PUSH2 0x3A5 JUMP JUMPDEST PUSH1 0x40 DUP1 MLOAD DUP1 DUP4 SUB PUSH1 0x1F NOT ADD DUP2 MSTORE SWAP2 SWAP1 MSTORE SWAP1 MSTORE DUP2 SLOAD PUSH1 0x1 DUP1 DUP3 ADD DUP5 SSTORE PUSH1 0x0 SWAP4 DUP5 MSTORE PUSH1 0x20 SWAP4 DUP5 SWAP1 KECCAK256 DUP4 MLOAD PUSH1 0x2 SWAP1 SWAP4 MUL ADD DUP1 SLOAD PUSH1 0x1 PUSH1 0x1 PUSH1 0xA0 SHL SUB NOT AND PUSH1 0x1 PUSH1 0x1 PUSH1 0xA0 SHL SUB SWAP1 SWAP4 AND SWAP3 SWAP1 SWAP3 OR DUP3 SSTORE DUP3 DUP5 ADD MLOAD DUP1 MLOAD SWAP4 SWAP5 SWAP3 SWAP4 PUSH2 0xF4 SWAP4 SWAP3 DUP6 ADD SWAP3 SWAP2 SWAP1 SWAP2 ADD SWAP1 PUSH2 0x15C JUMP JUMPDEST POP POP POP POP POP POP POP POP POP JUMP JUMPDEST PUSH1 0x0 DUP1 DUP1 JUMPDEST PUSH1 0x0 SLOAD DUP2 LT ISZERO PUSH2 0x155 JUMPI PUSH1 0x0 DUP2 DUP2 SLOAD DUP2 LT PUSH2 0x121 JUMPI PUSH2 0x121 PUSH2 0x3E0 JUMP JUMPDEST PUSH1 0x0 SWAP2 DUP3 MSTORE PUSH1 0x20 SWAP1 SWAP2 KECCAK256 ADD SLOAD PUSH1 0x1 PUSH1 0x1 PUSH1 0xA0 SHL SUB DUP6 DUP2 AND SWAP2 AND EQ ISZERO PUSH2 0x145 JUMPI PUSH1 0x1 SWAP2 POP JUMPDEST PUSH2 0x14E DUP2 PUSH2 0x3F6 JUMP JUMPDEST SWAP1 POP PUSH2 0x104 JUMP JUMPDEST POP SWAP3 SWAP2 POP POP JUMP JUMPDEST DUP3 DUP1 SLOAD PUSH2 0x168 SWAP1 PUSH2 0x41F JUMP JUMPDEST SWAP1 PUSH1 0x0 MSTORE PUSH1 0x20 PUSH1 0x0 KECCAK256 SWAP1 PUSH1 0x1F ADD PUSH1 0x20 SWAP1 DIV DUP2 ADD SWAP3 DUP3 PUSH2 0x18A JUMPI PUSH1 0x0 DUP6 SSTORE PUSH2 0x1D0 JUMP JUMPDEST DUP3 PUSH1 0x1F LT PUSH2 0x1A3 JUMPI DUP1 MLOAD PUSH1 0xFF NOT AND DUP4 DUP1 ADD OR DUP6 SSTORE PUSH2 0x1D0 JUMP JUMPDEST DUP3 DUP1 ADD PUSH1 0x1 ADD DUP6 SSTORE DUP3 ISZERO PUSH2 0x1D0 JUMPI SWAP2 DUP3 ADD JUMPDEST DUP3 DUP2 GT ISZERO PUSH2 0x1D0 JUMPI DUP3 MLOAD DUP3 SSTORE SWAP2 PUSH1 0x20 ADD SWAP2 SWAP1 PUSH1 0x1 ADD SWAP1 PUSH2 0x1B5 JUMP JUMPDEST POP PUSH2 0x1DC SWAP3 SWAP2 POP PUSH2 0x1E0 JUMP JUMPDEST POP SWAP1 JUMP JUMPDEST JUMPDEST DUP1 DUP3 GT ISZERO PUSH2 0x1DC JUMPI PUSH1 0x0 DUP2 SSTORE PUSH1 0x1 ADD PUSH2 0x1E1 JUMP JUMPDEST PUSH4 0x4E487B71 PUSH1 0xE0 SHL PUSH1 0x0 MSTORE PUSH1 0x41 PUSH1 0x4 MSTORE PUSH1 0x24 PUSH1 0x0 REVERT JUMPDEST PUSH1 0x0 DUP3 PUSH1 0x1F DUP4 ADD SLT PUSH2 0x21C JUMPI PUSH1 0x0 DUP1 REVERT JUMPDEST DUP2 CALLDATALOAD PUSH8 0xFFFFFFFFFFFFFFFF DUP1 DUP3 GT ISZERO PUSH2 0x237 JUMPI PUSH2 0x237 PUSH2 0x1F5 JUMP JUMPDEST PUSH1 0x40 MLOAD PUSH1 0x1F DUP4 ADD PUSH1 0x1F NOT SWAP1 DUP2 AND PUSH1 0x3F ADD AND DUP2 ADD SWAP1 DUP3 DUP3 GT DUP2 DUP4 LT OR ISZERO PUSH2 0x25F JUMPI PUSH2 0x25F PUSH2 0x1F5 JUMP JUMPDEST DUP2 PUSH1 0x40 MSTORE DUP4 DUP2 MSTORE DUP7 PUSH1 0x20 DUP6 DUP9 ADD ADD GT ISZERO PUSH2 0x278 JUMPI PUSH1 0x0 DUP1 REVERT JUMPDEST DUP4 PUSH1 0x20 DUP8 ADD PUSH1 0x20 DUP4 ADD CALLDATACOPY PUSH1 0x0 PUSH1 0x20 DUP6 DUP4 ADD ADD MSTORE DUP1 SWAP5 POP POP POP POP POP SWAP3 SWAP2 POP POP JUMP JUMPDEST PUSH1 0x0 DUP1 PUSH1 0x0 DUP1 PUSH1 0x0 PUSH1 0xA0 DUP7 DUP9 SUB SLT ISZERO PUSH2 0x2B0 JUMPI PUSH1 0x0 DUP1 REVERT JUMPDEST DUP6 CALLDATALOAD PUSH8 0xFFFFFFFFFFFFFFFF DUP1 DUP3 GT ISZERO PUSH2 0x2C8 JUMPI PUSH1 0x0 DUP1 REVERT JUMPDEST PUSH2 0x2D4 DUP10 DUP4 DUP11 ADD PUSH2 0x20B JUMP JUMPDEST SWAP7 POP PUSH1 0x20 DUP9 ADD CALLDATALOAD SWAP2 POP DUP1 DUP3 GT ISZERO PUSH2 0x2EA JUMPI PUSH1 0x0 DUP1 REVERT JUMPDEST PUSH2 0x2F6 DUP10 DUP4 DUP11 ADD PUSH2 0x20B JUMP JUMPDEST SWAP6 POP PUSH1 0x40 DUP9 ADD CALLDATALOAD SWAP2 POP DUP1 DUP3 GT ISZERO PUSH2 0x30C JUMPI PUSH1 0x0 DUP1 REVERT JUMPDEST PUSH2 0x318 DUP10 DUP4 DUP11 ADD PUSH2 0x20B JUMP JUMPDEST SWAP5 POP PUSH1 0x60 DUP9 ADD CALLDATALOAD SWAP2 POP DUP1 DUP3 GT ISZERO PUSH2 0x32E JUMPI PUSH1 0x0 DUP1 REVERT JUMPDEST PUSH2 0x33A DUP10 DUP4 DUP11 ADD PUSH2 0x20B JUMP JUMPDEST SWAP4 POP PUSH1 0x80 DUP9 ADD CALLDATALOAD SWAP2 POP DUP1 DUP3 GT ISZERO PUSH2 0x350 JUMPI PUSH1 0x0 DUP1 REVERT JUMPDEST POP PUSH2 0x35D DUP9 DUP3 DUP10 ADD PUSH2 0x20B JUMP JUMPDEST SWAP2 POP POP SWAP3 SWAP6 POP SWAP3 SWAP6 SWAP1 SWAP4 POP JUMP JUMPDEST PUSH1 0x0 DUP2 MLOAD PUSH1 0x0 JUMPDEST DUP2 DUP2 LT ISZERO PUSH2 0x38B JUMPI PUSH1 0x20 DUP2 DUP6 ADD DUP2 ADD MLOAD DUP7 DUP4 ADD MSTORE ADD PUSH2 0x371 JUMP JUMPDEST DUP2 DUP2 GT ISZERO PUSH2 0x39A JUMPI PUSH1 0x0 DUP3 DUP7 ADD MSTORE JUMPDEST POP SWAP3 SWAP1 SWAP3 ADD SWAP3 SWAP2 POP POP JUMP JUMPDEST PUSH1 0x0 PUSH2 0x3D5 PUSH2 0x3CF PUSH2 0x3C9 PUSH2 0x3C3 PUSH2 0x3BD DUP7 DUP13 PUSH2 0x36A JUMP JUMPDEST DUP11 PUSH2 0x36A JUMP JUMPDEST DUP9 PUSH2 0x36A JUMP JUMPDEST DUP7 PUSH2 0x36A JUMP JUMPDEST DUP5 PUSH2 0x36A JUMP JUMPDEST SWAP8 SWAP7 POP POP POP POP POP POP POP JUMP JUMPDEST PUSH4 0x4E487B71 PUSH1 0xE0 SHL PUSH1 0x0 MSTORE PUSH1 0x32 PUSH1 0x4 MSTORE PUSH1 0x24 PUSH1 0x0 REVERT JUMPDEST PUSH1 0x0 PUSH1 0x0 NOT DUP3 EQ ISZERO PUSH2 0x418 JUMPI PUSH4 0x4E487B71 PUSH1 0xE0 SHL PUSH1 0x0 MSTORE PUSH1 0x11 PUSH1 0x4 MSTORE PUSH1 0x24 PUSH1 0x0 REVERT JUMPDEST POP PUSH1 0x1 ADD SWAP1 JUMP JUMPDEST PUSH1 0x1 DUP2 DUP2 SHR SWAP1 DUP3 AND DUP1 PUSH2 0x433 JUMPI PUSH1 0x7F DUP3 AND SWAP2 POP JUMPDEST PUSH1 0x20 DUP3 LT DUP2 EQ ISZERO PUSH2 0x454 JUMPI PUSH4 0x4E487B71 PUSH1 0xE0 SHL PUSH1 0x0 MSTORE PUSH1 0x22 PUSH1 0x4 MSTORE PUSH1 0x24 PUSH1 0x0 REVERT JUMPDEST POP SWAP2 SWAP1 POP JUMP INVALID LOG2 PUSH5 0x6970667358 0x22 SLT KECCAK256 0xF6 DUP3 RETURN 0xEC 0xC2 ADD 0xC5 PUSH11 0x5743E57E5B4642DD837E63 0xB6 SWAP2 0xB0 0xD5 0x4A PUSH27 0xD533BC28223AD764736F6C634300080B0033000000000000000000 ",
  "sha1": "ea803b09e56a664a4fd9143c4912256ddc1f9e8b",
  "source": "pragma solidity ^0.8.0;\n\nimport \"./peerNetwork.sol\";\n\ncontract TransferNetwork is PeerNetwork {\n    struct Transfer {\n        address peerAddress;\n        string transfercode;\n    }\n\n    Transfer[] internal transfers;\n\n    function _allotCode(\n        string memory _transaction,\n        string memory _type,\n        string memory _pincode,\n        string memory _weight,\n        string memory _category\n    ) public onlyPeer(msg.sender) {\n        transfers.push(\n            Transfer(\n                msg.sender,\n                string(\n                    abi.encodePacked(\n                        _transaction,\n                        _type,\n                        _pincode,\n                        _weight,\n                        _category\n                    )\n                )\n            )\n        );\n    }\n}\n",
  "sourcePath": "contracts/transferNetwork.sol",
  "type": "contract"
}